{
  "_format": "hh-sol-artifact-1",
  "contractName": "EduSpendingTracker",
  "sourceName": "contracts/EduSpendingTracker.sol",
  "abi": [
    {
      "inputs": [],
      "stateMutability": "nonpayable",
      "type": "constructor"
    },
    {
      "anonymous": false,
      "inputs": [
        {
          "indexed": true,
          "internalType": "address",
          "name": "entity",
          "type": "address"
        }
      ],
      "name": "Authorized",
      "type": "event"
    },
    {
      "anonymous": false,
      "inputs": [
        {
          "indexed": true,
          "internalType": "address",
          "name": "sender",
          "type": "address"
        },
        {
          "indexed": false,
          "internalType": "uint256",
          "name": "amount",
          "type": "uint256"
        },
        {
          "indexed": true,
          "internalType": "address",
          "name": "recipient",
          "type": "address"
        },
        {
          "indexed": false,
          "internalType": "string",
          "name": "purpose",
          "type": "string"
        },
        {
          "indexed": false,
          "internalType": "string",
          "name": "currency",
          "type": "string"
        },
        {
          "indexed": false,
          "internalType": "uint256",
          "name": "timestamp",
          "type": "uint256"
        },
        {
          "indexed": false,
          "internalType": "bytes32",
          "name": "transactionId",
          "type": "bytes32"
        },
        {
          "indexed": false,
          "internalType": "string",
          "name": "senderName",
          "type": "string"
        },
        {
          "indexed": false,
          "internalType": "string",
          "name": "recipientName",
          "type": "string"
        }
      ],
      "name": "TransactionAdded",
      "type": "event"
    },
    {
      "anonymous": false,
      "inputs": [
        {
          "indexed": true,
          "internalType": "address",
          "name": "entity",
          "type": "address"
        }
      ],
      "name": "Unauthorized",
      "type": "event"
    },
    {
      "inputs": [
        {
          "internalType": "uint256",
          "name": "_amount",
          "type": "uint256"
        },
        {
          "internalType": "address",
          "name": "_recipient",
          "type": "address"
        },
        {
          "internalType": "string",
          "name": "_purpose",
          "type": "string"
        },
        {
          "internalType": "string",
          "name": "_currency",
          "type": "string"
        },
        {
          "internalType": "bytes32",
          "name": "_transactionId",
          "type": "bytes32"
        },
        {
          "internalType": "string",
          "name": "_senderName",
          "type": "string"
        },
        {
          "internalType": "string",
          "name": "_recipientName",
          "type": "string"
        }
      ],
      "name": "addTransaction",
      "outputs": [],
      "stateMutability": "nonpayable",
      "type": "function"
    },
    {
      "inputs": [],
      "name": "admin",
      "outputs": [
        {
          "internalType": "address",
          "name": "",
          "type": "address"
        }
      ],
      "stateMutability": "view",
      "type": "function"
    },
    {
      "inputs": [
        {
          "internalType": "address",
          "name": "_entity",
          "type": "address"
        }
      ],
      "name": "authorize",
      "outputs": [],
      "stateMutability": "nonpayable",
      "type": "function"
    },
    {
      "inputs": [
        {
          "internalType": "address",
          "name": "",
          "type": "address"
        }
      ],
      "name": "authorized",
      "outputs": [
        {
          "internalType": "bool",
          "name": "",
          "type": "bool"
        }
      ],
      "stateMutability": "view",
      "type": "function"
    },
    {
      "inputs": [
        {
          "internalType": "uint256",
          "name": "_index",
          "type": "uint256"
        }
      ],
      "name": "getTransaction",
      "outputs": [
        {
          "internalType": "address",
          "name": "sender",
          "type": "address"
        },
        {
          "internalType": "uint256",
          "name": "amount",
          "type": "uint256"
        },
        {
          "internalType": "address",
          "name": "recipient",
          "type": "address"
        },
        {
          "internalType": "string",
          "name": "purpose",
          "type": "string"
        },
        {
          "internalType": "string",
          "name": "currency",
          "type": "string"
        },
        {
          "internalType": "uint256",
          "name": "timestamp",
          "type": "uint256"
        },
        {
          "internalType": "bytes32",
          "name": "transactionId",
          "type": "bytes32"
        },
        {
          "internalType": "string",
          "name": "senderName",
          "type": "string"
        },
        {
          "internalType": "string",
          "name": "recipientName",
          "type": "string"
        }
      ],
      "stateMutability": "view",
      "type": "function"
    },
    {
      "inputs": [],
      "name": "getTransactionCount",
      "outputs": [
        {
          "internalType": "uint256",
          "name": "",
          "type": "uint256"
        }
      ],
      "stateMutability": "view",
      "type": "function"
    },
    {
      "inputs": [
        {
          "internalType": "uint256",
          "name": "",
          "type": "uint256"
        }
      ],
      "name": "transactions",
      "outputs": [
        {
          "internalType": "address",
          "name": "sender",
          "type": "address"
        },
        {
          "internalType": "uint256",
          "name": "amount",
          "type": "uint256"
        },
        {
          "internalType": "address",
          "name": "recipient",
          "type": "address"
        },
        {
          "internalType": "string",
          "name": "purpose",
          "type": "string"
        },
        {
          "internalType": "string",
          "name": "currency",
          "type": "string"
        },
        {
          "internalType": "uint256",
          "name": "timestamp",
          "type": "uint256"
        },
        {
          "internalType": "bytes32",
          "name": "transactionId",
          "type": "bytes32"
        },
        {
          "internalType": "string",
          "name": "senderName",
          "type": "string"
        },
        {
          "internalType": "string",
          "name": "recipientName",
          "type": "string"
        }
      ],
      "stateMutability": "view",
      "type": "function"
    },
    {
      "inputs": [
        {
          "internalType": "address",
          "name": "_entity",
          "type": "address"
        }
      ],
      "name": "unauthorize",
      "outputs": [],
      "stateMutability": "nonpayable",
      "type": "function"
    }
  ],
  "bytecode": "0x608060405234801561001057600080fd5b5033600260006101000a81548173ffffffffffffffffffffffffffffffffffffffff021916908373ffffffffffffffffffffffffffffffffffffffff16021790555060018060003373ffffffffffffffffffffffffffffffffffffffff1673ffffffffffffffffffffffffffffffffffffffff16815260200190815260200160002060006101000a81548160ff0219169083151502179055506115d5806100b86000396000f3fe608060405234801561001057600080fd5b50600436106100885760003560e01c8063b91816111161005b578063b918161114610137578063d2c241ee14610167578063f0b37c0414610183578063f851a4401461019f57610088565b80632e7700f01461008d57806333ea3dc8146100ab5780639ace38c2146100e3578063b6a5d7de1461011b575b600080fd5b6100956101bd565b6040516100a29190611302565b60405180910390f35b6100c560048036038101906100c09190610f67565b6101c9565b6040516100da999897969594939291906111de565b60405180910390f35b6100fd60048036038101906100f89190610f67565b6105d5565b604051610112999897969594939291906111de565b60405180910390f35b61013560048036038101906101309190610f3e565b610893565b005b610151600480360381019061014c9190610f3e565b6109c0565b60405161015e9190611287565b60405180910390f35b610181600480360381019061017c9190610f90565b6109e0565b005b61019d60048036038101906101989190610f3e565b610ca0565b005b6101a7610dce565b6040516101b491906111c3565b60405180910390f35b60008080549050905090565b60008060006060806000806060806000805490508a1061021e576040517f08c379a0000000000000000000000000000000000000000000000000000000008152600401610215906112c2565b60405180910390fd5b6000808b81548110610259577f4e487b7100000000000000000000000000000000000000000000000000000000600052603260045260246000fd5b9060005260206000209060090201604051806101200160405290816000820160009054906101000a900473ffffffffffffffffffffffffffffffffffffffff1673ffffffffffffffffffffffffffffffffffffffff1673ffffffffffffffffffffffffffffffffffffffff168152602001600182015481526020016002820160009054906101000a900473ffffffffffffffffffffffffffffffffffffffff1673ffffffffffffffffffffffffffffffffffffffff1673ffffffffffffffffffffffffffffffffffffffff168152602001600382018054610339906114b9565b80601f0160208091040260200160405190810160405280929190818152602001828054610365906114b9565b80156103b25780601f10610387576101008083540402835291602001916103b2565b820191906000526020600020905b81548152906001019060200180831161039557829003601f168201915b505050505081526020016004820180546103cb906114b9565b80601f01602080910402602001604051908101604052809291908181526020018280546103f7906114b9565b80156104445780601f1061041957610100808354040283529160200191610444565b820191906000526020600020905b81548152906001019060200180831161042757829003601f168201915b505050505081526020016005820154815260200160068201548152602001600782018054610471906114b9565b80601f016020809104026020016040519081016040528092919081815260200182805461049d906114b9565b80156104ea5780601f106104bf576101008083540402835291602001916104ea565b820191906000526020600020905b8154815290600101906020018083116104cd57829003601f168201915b50505050508152602001600882018054610503906114b9565b80601f016020809104026020016040519081016040528092919081815260200182805461052f906114b9565b801561057c5780601f106105515761010080835404028352916020019161057c565b820191906000526020600020905b81548152906001019060200180831161055f57829003601f168201915b5050505050815250509050806000015181602001518260400151836060015184608001518560a001518660c001518760e00151886101000151995099509950995099509950995099509950509193959799909294969850565b600081815481106105e557600080fd5b90600052602060002090600902016000915090508060000160009054906101000a900473ffffffffffffffffffffffffffffffffffffffff16908060010154908060020160009054906101000a900473ffffffffffffffffffffffffffffffffffffffff169080600301805461065a906114b9565b80601f0160208091040260200160405190810160405280929190818152602001828054610686906114b9565b80156106d35780601f106106a8576101008083540402835291602001916106d3565b820191906000526020600020905b8154815290600101906020018083116106b657829003601f168201915b5050505050908060040180546106e8906114b9565b80601f0160208091040260200160405190810160405280929190818152602001828054610714906114b9565b80156107615780601f1061073657610100808354040283529160200191610761565b820191906000526020600020905b81548152906001019060200180831161074457829003601f168201915b505050505090806005015490806006015490806007018054610782906114b9565b80601f01602080910402602001604051908101604052809291908181526020018280546107ae906114b9565b80156107fb5780601f106107d0576101008083540402835291602001916107fb565b820191906000526020600020905b8154815290600101906020018083116107de57829003601f168201915b505050505090806008018054610810906114b9565b80601f016020809104026020016040519081016040528092919081815260200182805461083c906114b9565b80156108895780601f1061085e57610100808354040283529160200191610889565b820191906000526020600020905b81548152906001019060200180831161086c57829003601f168201915b5050505050905089565b600260009054906101000a900473ffffffffffffffffffffffffffffffffffffffff1673ffffffffffffffffffffffffffffffffffffffff163373ffffffffffffffffffffffffffffffffffffffff1614610923576040517f08c379a000000000000000000000000000000000000000000000000000000000815260040161091a906112e2565b60405180910390fd5b60018060008373ffffffffffffffffffffffffffffffffffffffff1673ffffffffffffffffffffffffffffffffffffffff16815260200190815260200160002060006101000a81548160ff0219169083151502179055508073ffffffffffffffffffffffffffffffffffffffff167fdc84e3a4c83602050e3865df792a4e6800211a79ac60db94e703a820ce89292460405160405180910390a250565b60016020528060005260406000206000915054906101000a900460ff1681565b600160003373ffffffffffffffffffffffffffffffffffffffff1673ffffffffffffffffffffffffffffffffffffffff16815260200190815260200160002060009054906101000a900460ff16610a6c576040517f08c379a0000000000000000000000000000000000000000000000000000000008152600401610a63906112a2565b60405180910390fd5b60006040518061012001604052803373ffffffffffffffffffffffffffffffffffffffff1681526020018981526020018873ffffffffffffffffffffffffffffffffffffffff16815260200187815260200186815260200142815260200185815260200184815260200183815250908060018154018082558091505060019003906000526020600020906009020160009091909190915060008201518160000160006101000a81548173ffffffffffffffffffffffffffffffffffffffff021916908373ffffffffffffffffffffffffffffffffffffffff1602179055506020820151816001015560408201518160020160006101000a81548173ffffffffffffffffffffffffffffffffffffffff021916908373ffffffffffffffffffffffffffffffffffffffff1602179055506060820151816003019080519060200190610bb7929190610df4565b506080820151816004019080519060200190610bd4929190610df4565b5060a0820151816005015560c0820151816006015560e0820151816007019080519060200190610c05929190610df4565b50610100820151816008019080519060200190610c23929190610df4565b5050508573ffffffffffffffffffffffffffffffffffffffff163373ffffffffffffffffffffffffffffffffffffffff167ffbd2856a04ff7e112f232d9a309ea3c55be8615c9c242a16bec7a91b117a741789888842898989604051610c8f979695949392919061131d565b60405180910390a350505050505050565b600260009054906101000a900473ffffffffffffffffffffffffffffffffffffffff1673ffffffffffffffffffffffffffffffffffffffff163373ffffffffffffffffffffffffffffffffffffffff1614610d30576040517f08c379a0000000000000000000000000000000000000000000000000000000008152600401610d27906112e2565b60405180910390fd5b6000600160008373ffffffffffffffffffffffffffffffffffffffff1673ffffffffffffffffffffffffffffffffffffffff16815260200190815260200160002060006101000a81548160ff0219169083151502179055508073ffffffffffffffffffffffffffffffffffffffff167f8e4a23d6a5d81f013eca4bc92aeb9214ccafcaebd1f097c350c922d6e19122d560405160405180910390a250565b600260009054906101000a900473ffffffffffffffffffffffffffffffffffffffff1681565b828054610e00906114b9565b90600052602060002090601f016020900481019282610e225760008555610e69565b82601f10610e3b57805160ff1916838001178555610e69565b82800160010185558215610e69579182015b82811115610e68578251825591602001919060010190610e4d565b5b509050610e769190610e7a565b5090565b5b80821115610e93576000816000905550600101610e7b565b5090565b6000610eaa610ea5846113d9565b6113a8565b905082815260208101848484011115610ec257600080fd5b610ecd848285611477565b509392505050565b600081359050610ee48161155a565b92915050565b600081359050610ef981611571565b92915050565b600082601f830112610f1057600080fd5b8135610f20848260208601610e97565b91505092915050565b600081359050610f3881611588565b92915050565b600060208284031215610f5057600080fd5b6000610f5e84828501610ed5565b91505092915050565b600060208284031215610f7957600080fd5b6000610f8784828501610f29565b91505092915050565b600080600080600080600060e0888a031215610fab57600080fd5b6000610fb98a828b01610f29565b9750506020610fca8a828b01610ed5565b965050604088013567ffffffffffffffff811115610fe757600080fd5b610ff38a828b01610eff565b955050606088013567ffffffffffffffff81111561101057600080fd5b61101c8a828b01610eff565b945050608061102d8a828b01610eea565b93505060a088013567ffffffffffffffff81111561104a57600080fd5b6110568a828b01610eff565b92505060c088013567ffffffffffffffff81111561107357600080fd5b61107f8a828b01610eff565b91505092959891949750929550565b61109781611425565b82525050565b6110a681611437565b82525050565b6110b581611443565b82525050565b60006110c682611409565b6110d08185611414565b93506110e0818560208601611486565b6110e981611549565b840191505092915050565b6000611101601583611414565b91507f456e74697479206e6f7420617574686f72697a656400000000000000000000006000830152602082019050919050565b6000611141601383611414565b91507f496e646578206f7574206f6620626f756e6473000000000000000000000000006000830152602082019050919050565b6000611181600983611414565b91507f4e6f742061646d696e00000000000000000000000000000000000000000000006000830152602082019050919050565b6111bd8161146d565b82525050565b60006020820190506111d8600083018461108e565b92915050565b6000610120820190506111f4600083018c61108e565b611201602083018b6111b4565b61120e604083018a61108e565b818103606083015261122081896110bb565b9050818103608083015261123481886110bb565b905061124360a08301876111b4565b61125060c08301866110ac565b81810360e083015261126281856110bb565b905081810361010083015261127781846110bb565b90509a9950505050505050505050565b600060208201905061129c600083018461109d565b92915050565b600060208201905081810360008301526112bb816110f4565b9050919050565b600060208201905081810360008301526112db81611134565b9050919050565b600060208201905081810360008301526112fb81611174565b9050919050565b600060208201905061131760008301846111b4565b92915050565b600060e082019050611332600083018a6111b4565b818103602083015261134481896110bb565b9050818103604083015261135881886110bb565b905061136760608301876111b4565b61137460808301866110ac565b81810360a083015261138681856110bb565b905081810360c083015261139a81846110bb565b905098975050505050505050565b6000604051905081810181811067ffffffffffffffff821117156113cf576113ce61151a565b5b8060405250919050565b600067ffffffffffffffff8211156113f4576113f361151a565b5b601f19601f8301169050602081019050919050565b600081519050919050565b600082825260208201905092915050565b60006114308261144d565b9050919050565b60008115159050919050565b6000819050919050565b600073ffffffffffffffffffffffffffffffffffffffff82169050919050565b6000819050919050565b82818337600083830152505050565b60005b838110156114a4578082015181840152602081019050611489565b838111156114b3576000848401525b50505050565b600060028204905060018216806114d157607f821691505b602082108114156114e5576114e46114eb565b5b50919050565b7f4e487b7100000000000000000000000000000000000000000000000000000000600052602260045260246000fd5b7f4e487b7100000000000000000000000000000000000000000000000000000000600052604160045260246000fd5b6000601f19601f8301169050919050565b61156381611425565b811461156e57600080fd5b50565b61157a81611443565b811461158557600080fd5b50565b6115918161146d565b811461159c57600080fd5b5056fea2646970667358221220184975b487a8096ab9f7c6c19b9b0d5fc57905ef72f7448d26cf520dae37d8c464736f6c63430008000033",
  "linkReferences": {},
  "deployedLinkReferences": {}
}